:020000040800F2
:1000000000000220E5170008B5170008B717000820
:10001000B9170008BB170008BD1700080000000052
:10002000000000000000000000000000BF170008F2
:10003000C117000800000000C3170008C51700081A
:10004000351800083518000835180008351800085C
:10005000351800083518000835180008351800084C
:10006000351800083518000835180008351800083C
:10007000351800083518000835180008351800082C
:10008000351800083518000835180008351800081C
:10009000351800083518000835180008351800080C
:1000A00035180008351800083518000835180008FC
:1000B00035180008351800083518000835180008EC
:1000C00035180008351800083518000835180008DC
:1000D00035180008351800083518000835180008CC
:1000E00035180008351800083518000835180008BC
:1000F00035180008351800083518000835180008AC
:10010000351800083518000835180008351800089B
:10011000351800083518000835180008351800088B
:10012000351800083518000835180008351800087B
:10013000351800083518000835180008351800086B
:10014000351800083518000835180008351800085B
:10015000351800083518000835180008351800084B
:10016000351800083518000835180008351800083B
:100170003518000835180008351800080000000080
:080180003518000835180008CD
:1001880010B5054C237833B9044B13B10448AFF3C9
:1001980000800123237010BD14000020000000001F
:1001A800A818000808B5034B1BB103490348AFF36F
:1001B800008008BD0000000018000020A8180008F2
:1001C800034613F8012B002AFBD1181A013870478F
:1001D80053B94AB9002908BF00281CBF4FF0FF31A6
:1001E8004FF0FF3000F07AB9ADF1080C6DE904CE9C
:1001F80000F006F8DDF804E0DDE9022304B07047FA
:100208002DE9F0478C460D460446089E002B51D137
:100218008A4217466DD9B2FA82FEBEF1000F0BD0A2
:10022800CEF1200C01FA0EF520FA0CFC02FA0EF7BA
:100238004CEA050C00FA0EF44FEA174A250CBCFBF1
:10024800FAF81FFA87F90AFB18CC45EA0C4508FBAF
:1002580009F3AB420AD9ED1908F1FF3280F0238186
:10026800AB4240F22081A8F102083D44ED1AA4B245
:10027800B5FBFAF00AFB105544EA054400FB09F9FE
:10028800A14509D9E41900F1FF3380F00A81A1459D
:1002980040F2078102383C44A4EB090440EA0840D4
:1002A8000021002E61D024FA0EF40023346073601C
:1002B800BDE8F0878B4207D9002E54D0002186E88C
:1002C80021000846BDE8F087B3FA83F1002940F021
:1002D8008E80AB4202D3824200F2FA80841A65EB28
:1002E80003050120AC46002E3FD086E81010BDE87B
:1002F800F08712B90127B7FBF2F7B7FA87FEBEF10C
:10030800000F34D1EB1B3A0C1FFA87FC0121B3FB19
:10031800F2F8250C02FB183345EA03450CFB08F3F9
:10032800AB4207D9ED1908F1FF3002D2AB4200F217
:10033800D1808046ED1AA3B2B5FBF2F002FB10554E
:1003480043EA05440CFB00FCA44507D9E41900F175
:10035800FF3302D2A44500F2B8801846A4EB0C047F
:1003680040EA08409DE731463046BDE8F087CEF1C7
:10037800200405FA0EF307FA0EF720FA04F83A0CEF
:1003880025FA04F448EA0308B4FBF2F14FEA1845E9
:1003980002FB11441FFA87FC45EA044501FB0CF3F4
:1003A800AB4200FA0EF409D9ED1901F1FF3080F0E3
:1003B8008A80AB4240F2878002393D44EB1A1FFA2B
:1003C80088F5B3FBF2F002FB103345EA034500FB66
:1003D8000CF3AB4207D9ED1900F1FF386FD2AB42ED
:1003E8006DD902383D44EB1A40EA01418FE7C1F16B
:1003F800200722FA07F88B4005FA01F448EA0303BC
:1004080020FA07FE4FEA134CFD404EEA040EB5FBF6
:10041800FCF94FEA1E440CFB19551FFA83F844EA0D
:10042800054509FB08F4AC4202FA01F200FA01FAA8
:1004380008D9ED1809F1FF3043D2AC4241D9A9F1EE
:1004480002091D442D1B1FFA8EFEB5FBFCF00CFBA8
:1004580010554EEA054400FB08F8A04507D9E418F2
:1004680000F1FF3529D2A04527D902381C4440EABB
:100478000940A4EB0804A0FB02894C45C6464D463A
:1004880015D312D056B1BAEB0E0364EB050404FA87
:1004980007F7CB401F43CC40376074600021BDE8AC
:1004A800F0871846F8E69046E0E6C245EAD2B8EB8F
:1004B800020E69EB03050138E4E72846D7E7404612
:1004C80091E78146BEE7014678E702383C4445E7B4
:1004D800084608E7A8F102083D442BE7704700BF2B
:1004E80038B50E4A0E4B054618784FF47A73B3FBAD
:1004F800F0F31068B0FBF3F000F09CF8044658B92C
:100508000F2D09D8024629464FF0FF3000F05EF85B
:10051800044B20461D6038BD012038BD1000002066
:10052800000000200400002008B50B4B1A6842F4B4
:1005380000721A601A6842F480621A601A6842F4FB
:1005480080721A60032000F02FF80020FFF7C8FF20
:1005580001F0D8F8002008BD003C0240034A044BD3
:1005680011681B780B441360704700BF3C000020E3
:1005780000000020014B1868704700BF3C000020B5
:1005880038B50446FFF7F6FF631C1CBF054B1B7804
:10059800054618BFE418FFF7EDFF401B8442FAD860
:1005A80038BD00BF00000020074AD36823F4E06389
:1005B8001B041B0C43F0BF63000243F4003300F438
:1005C800E0600343D360704700ED00E0174B30B59F
:1005D800DC68C4F30224C4F10703251D042B28BFDB
:1005E8000423062D4FF0010505FA03F303F1FF3349
:1005F8008CBF033C00241940A14005FA04F4013CD7
:100608002240002842EA01024FEA0212ADBF00F17F
:10061800604000F00F00064B00F56140B5BFD2B254
:10062800D2B21A5480F8002330BD00BF00ED00E0BC
:1006380014ED00E00138B0F1807F0AD2064B074A7A
:100648005860F02182F823100020072298601A6071
:1006580070470120704700BF10E000E000ED00E0A7
:100668002DE9F04F85B00B68DFF8AC81684ADFF8F8
:10067800AC91019300230124019D9C402540AC428C
:1006880040F0B0804C6824F0100C0CF1FF36012EBD
:100698004FEA430E12D88768032606FA0EF627EAB1
:1006A8000607CE6806FA0EF63E4386604768C4F32E
:1006B800001627EA05079E403E4346600326C768A2
:1006C80006FA0EF6F64307EA060A8F6807FA0EF7E7
:1006D80047EA0A07BCF1020FC76016D14FEAD30AEE
:1006E80000EB8A0A03F0070BDAF820704FEA8B0B4D
:1006F8004FF00F0C0CFA0BFC27EA0C0C0F6907FAE9
:100708000BF747EA0C07CAF8207007683E4004F068
:10071800030707FA0EFE4EEA06060660E60061D5F4
:100728004FF0000BCDF80CB0D8F84470394E47F4B0
:100738008047C8F84470D8F8447007F48047039796
:10074800039F23F0030707F1804707F59C3703F061
:10075800030CD7F808A04FEA8C0C4FF00F0E0EFAD6
:100768000CFEB0422AEA0E0E43D006F58066B0426F
:1007780041D006F58066B0423FD006F58066B042AB
:100788003DD006F58066B0423BD048453BD006F5E3
:100798000066B04239D006F58066B04214BF08261C
:1007A800072606FA0CF646EA0E06BE601668EF4300
:1007B80014F4803F0CBF3E402E431660566814F474
:1007C800003F0CBF3E402E435660966814F4801FCD
:1007D8000CBF3E402E439660D668A40254BF3E40EC
:1007E8002E43D6600133102B7FF445AF05B0BDE82A
:1007F800F08F5E46D5E70126D3E70226D1E7032628
:10080800CFE70426CDE70526CBE70626C9E700BFD4
:10081800003C014000000240003802400014024041
:1008280001684B6913F480634FF0000210D06FF435
:1008380080634B612023026380F83D3080F83E20BE
:10084800036C80F83C2043F00403036401207047E4
:10085800184670472DE9F843044617469946C1F3F0
:1008680007488EB22568B8F1010F0CBF6B69AB69F8
:1008780036EA030314BF0120002008B9BDE8F88355
:100888006B695A0516D52B6843F400732B606FF417
:1008980080636B6120220023236384F83D2084F861
:1008A8003E30226C42F00402226484F83C3001207D
:1008B800BDE8F8837B1CD5D0FFF75CFEA0EB0900F0
:1008C800874201D3002FCDD100232022236384F84F
:1008D8003D2084F83E30226C42F02002E4E770B5F7
:1008E80004460D46164623685B695B0701D5002060
:1008F80070BD2046FFF794FFA8B96A1CF3D0FFF734
:1009080039FE801B854201D3002DECD10023202223
:10091800236384F83D2084F83E30226C84F83C3010
:1009280042F020022264012070BD2DE9F843089EA0
:10093800044690461F46C1F307498DB22368B9F1B2
:10094800010F0CBF5B699B6935EA03030CBF0123E8
:100958000023434502D00020BDE8F8837B1CEDD07E
:10096800FFF708FE801B874201D3002FE6D1002342
:100978002022236384F83D2084F83E30226C84F8DA
:100988003C3042F0200222640120BDE8F88370B5B3
:1009980004460D46164623685B691B0601D50020F0
:1009A80070BD2046FFF73CFFA8B96A1CF3D0FFF7DB
:1009B800E1FD801B854201D3002DECD100232022CC
:1009C800236384F83D2084F83E30226C84F83C3060
:1009D80042F020022264012070BD000070B5044678
:1009E80008B9012070BD90F83D3003F0FF021BB933
:1009F80080F83C2000F0A2FE242384F83D302368D0
:100A08001A6822F001021A601A6842F400421A6059
:100A18001A6822F400421A6000F080FC6568414BB5
:100A28009D424DD8404B9842DBD922683F495368D4
:100A3800B0FBF1F123F03F030B435360136A23F03B
:100A48003F03013119431162D169364B21F44F41FB
:100A58009D4221F0FF0100F1FF3048D86D00B0FB46
:100A6800F5F00130C0F30B03042B38BF04230B430C
:100A7800D3611168206AE36921F0C00103430B4385
:100A880013609168E068236921F40341034321F06E
:100A9800FF010B439360D168A069636921F0FF01EE
:100AA80003430B43D360136843F001031360002032
:100AB8002023206484F83D30206384F83E0070BD14
:100AC8001B4B98428DD92268184E5368B0FBF6F636
:100AD80023F03F0333435360136A4FF49671714315
:100AE80023F03F034FF47A76B1FBF6F1A9E7A36848
:100AF80053B905EB4503B0FBF3F0431CC3F30B03F9
:100B08006BB143F40043B2E719236B43B0FBF3F036
:100B1800431CC3F30B0313B143F44043A7E701237A
:100B2800A5E700BFA08601007F841E0040420F0099
:100B3800FF083D002DE9FF4104461F460D4690463B
:100B4800FFF718FD94F83D30202B064604D0022507
:100B5800284604B0BDE8F0810090192301225B49C2
:100B68002046FFF7E2FE0028F1D194F83C30012B33
:100B7800EDD0012384F83C3023681A68D2075EBFA1
:100B88001A6842F001021A601A6822F400621A60B8
:100B9800212284F83D20102284F83E20002222647D
:100BA8006785628D22854A4AE262E26AC4F8248037
:100BB800082A04D0012A02D012F5803F04D11A680D
:100BC80042F480721A6002E0226B122AF7D00022E7
:100BD80000960A9B4FF001112046FFF7A6FE2268F7
:100BE80038B11368DB0544BF4FF400732364012553
:100BF800AEE72369B3F5804F13D105F0FE05156103
:100C080033460A9A33492046FFF724FE0546002852
:100C1800EDD1236803905A6903929B690393039B60
:100C280044E0EB1103F0060343F0F00313612A4993
:100C38000A9A33462046FFF70DFE0028D7D12368CD
:100C4800EDB21D61DCE732460A992046FFF79FFEA8
:100C580040B1236C042B01BF2268136843F400736E
:100C68001360C4E7636A20681A4612F8011B016121
:100C78006262628D013A92B26285228D4769511E85
:100C880089B27F0721850AD549B1597801610233B4
:100C98006362638D013B9BB2023A638522853246CB
:100CA8000A992046FFF71BFE0028D2D1238D002B7E
:100CB800C9D121680A6842F400720A60202284F8C7
:100CC8003D2084F83C3084F83E3041E702001000B3
:100CD8000000FFFF02000100080001002DE9F04FAD
:100CE800044685B0984689469246FFF743FC94F837
:100CF8003D30202B054603D0022005B0BDE8F08F1B
:100D08000090192301224C492046FFF70EFE0028C7
:100D1800F2D194F83C30012BEED0012384F83C301A
:100D28002368DFF814B11A68D2075EBF1A6842F068
:100D380001021A601A6822F400621A60242384F8F7
:100D48003D3000232364A3F58033E362012709F0D3
:100D5800FE092268136843F4807313604FF0011191
:100D68004346009500222046FFF7DFFD236838B18F
:100D78001B68DB0502D54FF4007323640320BCE72E
:100D8800C3F81090FFF7F6FB23685A695B690546BC
:100D9800C2F34002C3F38023A02694F83D10A02993
:100DA80001D002B9E3B12368202684F83D605A696E
:100DB80012F0020F1A6842F400721A6027D000225B
:100DC80003925A6903929B690393039B0095192325
:100DD800012219492046FFF7A8FD98B101208CE7A8
:100DE800FFF7C8FB401B804502D3B8F1000F01D1C3
:100DF80084F83D6023685A695B69C2F34002C3F313
:100E08008023CAE784F83D6084F83C0075E76FF4F6
:100E180080625A6159460095192301222046FFF73E
:100E280084FD0028DAD10137574592D384F83D6014
:100E380084F83C00D2E700BF020010002DE9F3411E
:100E4800044608B901203FE00368DD0710D4236891
:100E580098075AD423681A0700F19C8023685B0717
:100E680000F1BA80A069002840F01B8100202BE027
:100E7800A44B9A6802F00C02042A07D09A6802F080
:100E88000C02082A0AD15B68590207D59D4B1B68DA
:100E98009A03DCD56368002BD9D1D3E76368994DF1
:100EA800B3F5803F13D12B6843F480332B60FFF7F1
:100EB80061FB944D06462B689B03C8D4FFF75AFB89
:100EC800801B6428F7D9032002B0BDE8F081B3F590
:100ED800A02F04D12B6843F480232B60E3E72A6812
:100EE80022F480322A602A6822F480222A60002BA9
:100EF800DDD1FFF73FFB06462B689F03A7D5FFF719
:100F080039FB801B6428F7D9DDE77E4B9A6812F01D
:100F18000C0F07D09A6802F00C02082A11D15B68FE
:100F28005E020ED4774B1A68950702D5E268012A4B
:100F380088D11A68216922F0F80242EAC1021A60CF
:100F480088E7E268704BB2B101221A60FFF712FB22
:100F58006C4D06462B68980707D52B68226923F045
:100F6800F80343EAC2032B6074E7FFF703FB801B17
:100F78000228EFD9A7E71A60FFF7FCFA614D064689
:100F88002B6899077FF566AFFFF7F4FA801B0228F4
:100F9800F6D998E762695D4B7AB101221A60FFF7CA
:100FA800E9FA584D06466B6F9F073FF557AFFFF7B5
:100FB800E1FA801B0228F6D985E71A60FFF7DAFA0A
:100FC800504D06466B6F98077FF548AFFFF7D2FA8A
:100FD800801B0228F6D976E74A4B1A6C12F0805229
:100FE80028D101921A6C42F080521A641B6C03F0EB
:100FF80080530193019B0126454D2B68D9051BD5CC
:10100800A368404D012B27D12B6F43F001032B67B9
:10101800FFF7B0FA3B4D074641F288382B6F9B0724
:1010280039D5002E3FF41EAF364A136C23F0805397
:10103800136417E70026DFE72B6843F480732B60FF
:10104800FFF798FA07462B68DA05D9D4FFF792FA22
:10105800C01B0228F7D936E7052B04D12B6F43F0C4
:1010680004032B67D0E72A6F22F001022A672A6F50
:1010780022F004022A67002BCAD1FFF77BFA41F25B
:10108800883807462B6F9807CBD5FFF773FAC01B34
:101098004045F7D917E7FFF76DFAC01B4045BDD9A2
:1010A80011E7184DAB6803F00C03082B47D0194E15
:1010B80000230228336035D1FFF75CFA07462B6816
:1010C800990129D4226AE3691343626A43EA8213C5
:1010D800E26A43EA0263A26A0A4C5208013A43EA06
:1010E80002436B6001233360FFF744FA0546236827
:1010F8009A013FF5BBAEFFF73DFA401B0228F6D92F
:10110800E1E600BF0038024000004742800E474237
:101118000070004060004742FFF72CFAC01B02280D
:10112800CDD9D0E6FFF726FA04462B689B017FF558
:101138009DAEFFF71FFA001B0228F6D9C3E6012867
:101148003FF4C2AEA868E36900F480029A427FF4D3
:1011580079AE226A00F03F0393427FF473AE626A6D
:1011680047F6C073034093427FF46CAEA26A00F462
:10117800403393427FF466AEE36A00F07060C01AB1
:1011880018BF0120A0E600BF134908B58B6803F01B
:101198000C03042B03D0082B03D0104808BD1048BB
:1011A80008BD4A684B68496813F4800314BF0C48AB
:1011B8000A48C1F3881118BF002302F03F02A1FBBF
:1011C8000001FFF705F8044B5B68C3F301430133E3
:1011D8005B00B0FBF3F008BD003802400024F400C7
:1011E80000127A002DE9F0410D46044610B901209D
:1011F800BDE8F081444B1A6802F00F028A4229D3F5
:1012080021688F072ED4C80741D43F4B1A6802F0D3
:101218000F02954267D3226851076DD4130707D58B
:101228003A4A2169936823F4604343EAC10393600F
:10123800FFF7AAFF354B364A9B68C3F30313D35C09
:10124800D840344B1860344B1868FFF749F9002030
:10125800BDE8F081CAB21A701B6803F00F03994207
:10126800C5D1CDE7294B11F0040F1EBF9A6842F48F
:10127800E0529A600E0742BF9A6842F460429A6050
:101288009A68A06822F0F00202439A60BBE762689D
:101298001E4B012A1DD11B6813F4003FA7D01B4E1B
:1012A800B36823F003031343B360FFF763F941F214
:1012B80088380746B368626803F00C03B3EB820F03
:1012C800A3D0FFF757F9C01B4045F3D90320BDE869
:1012D800F081911E01291B6802D813F0007FDDE719
:1012E80013F0020FDAE7EAB21A701B6803F00F0373
:1012F8009D427FF47CAF8EE70449E0688B6823F455
:10130800E05303438B6089E7003C02400038024009
:101318000D1900081000002004000020044B054AA5
:101328009B68C3F38223D35C034A1068D840704794
:10133800003802401D1900081000002008B554228A
:101348000249034800F098FA08BD00BF9400002045
:101358004000002038B53220FFF712F9FFF7EEFF02
:10136800054D064C29784FF47A7303222046FFF77F
:10137800B5FC0028F6D138BD0C0000204000002044
:1013880013B50F4B0F4C1B7820F00F021A4343EA9A
:101398000010C0B242F00403237040F004036270EE
:1013A800A370E070FFF7CAFF074B08481978C823F5
:1013B800009322460423FFF7BDFB02B010BD00BF17
:1013C80039000020350000200C00002040000020DB
:1013D80013B5114B114C1B7820F00F01194343EA48
:1013E8000010C0B241F00503237041F0010140F044
:1013F800050340F001006170A370E070FFF79EFFE5
:10140800074B08481978C823009322460423FFF79E
:1014180091FB02B010BD00BF39000020350000204C
:101428000C0000204000002008B50120FFF7A8FFAD
:101438000A20FFF7A5F8034B00221A70024B01227D
:101448001A7008BD3A0000200D000020094B1870E2
:10145800013801280CD801390F2909D801EB0011EE
:10146800054B13F8110060F07F00C0B2FFF788BF8A
:10147800704700BF0D000020C01800082DE9F04E8D
:1014880000AFE6B0E94621B1012919D0BD46BDE853
:10149800F08E2C4D2C4E441E14F8010F0028F5D068
:1014A800FFF796FF2B780133DBB2102B2B70F3D1AB
:1014B800307801210844FFF7C9FF00232B70EBE7C0
:1014C8000023C21849F823200133642BF9D1D9F835
:1014D80000001D4C1D4EDFF87CB01D4DFEF770FE60
:1014E800307020780BEB000313F8011CFFF7AEFFF8
:1014F80023782B4413F801AC307882450ADB237833
:10150800013B1BF80320013A12F0FF020AD00BF846
:101518000320BBE759F82A301878FFF759FF0AF17A
:10152800010AE9E701210BF80310E95C0131C9B2AE
:101538008842E95401BF10210BF80310EA543270B5
:10154800A4E700BF3A0000200D000020340000206E
:101558003000002008000020082804D1034B187030
:101568002020FFF735BF0028F8D070473900002049
:1015780008B50120FFF704FF4FF47A70FFF700F871
:101588000220FFF7FDFE0520FEF7FAFF2820FFF7EF
:10159800F7FE0520FEF7F4FF0C20FFF7F1FE05200B
:1015A800FEF7EEFF8020FFF7EBFE4FF4FA70BDE880
:1015B8000840FEF7E5BF000030B595B030220021A5
:1015C80008A800F064F90021142203A800F05FF9CC
:1015D80000241C4B01941A6C42F080521A641B6C54
:1015E80003F080530193019B174B02941A6842F44D
:1015F80080421A601B680F9403F480430293029B95
:1016080001230B9310230C9308231093A82302257E
:10161800119308A80423139308950E951295FFF7C4
:101628000DFC0F2303934FF4A053069305214FF4A9
:10163800805303A8049505940793FFF7D3FD15B0CD
:1016480030BD00BF00380240007000401FB5FEF7F3
:101658006BFF0024FFF7B0FF244B01941A6B24485A
:1016680042F080021A631A6B02F080020192019A1A
:1016780002941A6B42F001021A631A6B02F001021B
:101688000292029A03941A6B42F002021A631B6BCD
:10169800184A846003F002030393039B164BC4604B
:1016A80080E80C004FF48043036144618461C461A5
:1016B8000462FFF793F9FFF74DFEFFF759FF082083
:1016C800FFF74AFFFFF7B0FE01210846FFF7BEFE0D
:1016D80021460A48FFF7D2FE01210220FFF7B6FE95
:1016E80021460748FFF7CAFEFEE700BF0038024060
:1016F8009400002000540040801A060000190008D9
:101708000819000882B00C4B002100915A6C42F471
:1017180080425A645A6C02F480420092009A019105
:101728001A6C42F080521A641B6C03F080530193C8
:10173800019B02B0704700BF0038024030B5044634
:1017480089B01422002103A800F0A1F82268144BE4
:101758009A4223D1134C144800250195236B43F07A
:1017680002032363236B03F002030193019BC0234D
:10177800039312230493012305930323069303A9D8
:1017880004230793FEF76CFF0295236C43F40013C0
:101798002364236C03F400130293029B09B030BD49
:1017A8000054004000380240000402407047FEE741
:1017B800FEE7FEE7FEE7704770477047FEF7CEBECC
:1017C800054BD3F8882042F47002C3F888204FF004
:1017D80000629A60704700BF00ED00E0DFF834D087
:1017E800002103E00C4B5B58435004310B480C4B71
:1017F80042189A42F6D30B4A02E0002342F8043B0F
:10180800094B9A42F9D3FFF7DBFF00F011F8FFF715
:101818001DFF704700000220381900080000002052
:101828001400002014000020E8000020FEE700005B
:1018380070B50D4E0D4CA41BA4100025A54209D16E
:101848000B4E0C4C00F02CF8A41BA4100025A5424C
:1018580005D170BD56F8253098470135EEE756F8A2
:10186800253098470135F2E730190008301900088B
:10187800301900083419000810B5431E0A44914273
:1018880000D110BD11F8014B03F8014FF7E70244EE
:101898000346934200D1704703F8011BF9E70000A3
:1018A800F8B500BFF8BC08BC9E467047F8B500BF45
:0818B800F8BC08BC9E46704715
:1018C00000000100020003000400050006000700FC
:1018D000080009000A000B000C000D000E000F00AC
:1018E00040004100420043004400450046004700DC
:1018F000480049004A004B004C004D004E004F008C
:10190000416C706572656E00494E434500000000F1
:10191000000000000001020304060708090000009F
:081920000001020304000000B5
:08192800E0E8FF7F0100000070
:04193000AD010008FD
:04193400890100081D
:101938000100000010000000101010104E010000FF
:041948000024F40083
:04000005080017E5F3
:00000001FF
